:100000000C941D050C943A050C943A050C943A3462
:100010000C943A050C943A050C943A050C943A0564
:100020000C943A050C943A050C9400310C94D83198
:100030000C94D1270C943A050C943A050C943A058B
:100040000C943A050C943A050C943A050C943A0534
:100050000C943A050C94DC300C943A050C943A0557
:100060000C943A050C943A050C943A050C943A0514
:100070000C943A050C943A050C943A050C943A0504
:100080000C943A050C943A050C943A050C943A05F4
:100090000C943A050C943A050C943A050C943A05E4
:1000A0000C943A050C943A050C943A050501098024
:1000B000A101850319012AB700150126B700950192
:1000C00075108100C0050C0901A101850419012AE0
:1000D000A002150126A002950175108100C00660DE
:1000E000FF0961A1010962150026FF00952075082E
:1000F00081020963150026FF00952075089102C052
:1001000005010906A101050719E029E715002501E8
:10011000950875018102950175088101050719008F
:1001200029FF150026FF00950675088100050819AE
:1001300001290515002501950575019102950175A7
:10014000039101C000AF00AE07087F0807003E5BC7
:100150004F5B3E003E6B4F6B3E001C3E7C3E1C00E6
:10016000183C7E3C18001C577D571C001C5E7F5EAF
:100170001C0000183C180000FFE7C3E7FF00001850
:1001800024180000FFE7DBE7FF0030483A060E00C6
:10019000262979292600407F05050700407F05258F
:1001A0003F005A3CE73C5A007F3E1C1C0800081CDC
:1001B0001C3E7F0014227F2214005F5F005F5F00FF
:1001C00006097F017F00006689956A0060606060B3
:1001D000600094A2FFA2940008047E04080010208E
:1001E0007E20100008082A1C0800081C2A080800A5
:1001F0001E10101010000C1E0C1E0C0030383E3863
:100200003000060E3E0E0600000000000000000058
:100210005F000000000700070000147F147F140037
:10022000242A7F2A120023130864620036495620CC
:100230005000000807030000001C2241000000419C
:10024000221C00002A1C7F1C2A0008083E08080007
:100250000080703000000808080808000000606096
:1002600000002010080402003E5149453E000042B3
:100270007F4000007249494946002141494D330001
:100280001814127F10002745454539003C4A49495A
:1002900031004121110907003649494936004649D4
:1002A00049291E0000001400000000403400000036
:1002B00000081422410014141414140000412214E4
:1002C00008000201590906003E415D594E007C12AA
:1002D00011127C007F49494936003E4141412200CC
:1002E0007F4141413E007F49494941007F09090959
:1002F00001003E41415173007F0808087F00004122
:100300007F4100002040413F01007F08142241004E
:100310007F40404040007F021C027F007F040810A5
:100320007F003E4141413E007F09090906003E41F0
:1003300051215E007F0919294600264949493200AA
:1003400003017F0103003F4040403F001F20402049
:100350001F003F4038403F0063140814630003044B
:10036000780403006159494D4300007F4141410039
:10037000020408102000004141417F0004020102F4
:1003800004004040404040000003070800002054A3
:10039000547840007F2844443800384444442800BE
:1003A000384444287F0038545454180000087E090B
:1003B000020018A4A49C78007F080404780000447C
:1003C0007D4000002040403D00007F102844000098
:1003D00000417F4000007C04780478007C0804041D
:1003E0007800384444443800FC18242418001824A9
:1003F0002418FC007C0804040800485454542400C9
:1004000004043F4424003C4040207C001C20402049
:100410001C003C4030403C004428102844004C90D4
:1004200090907C004464544C440000083641000025
:1004300000007700000000413608000002010204BD
:1004400002003C2623263C00000000000000404043
:1004500040F0F8F8FF38FFF8F83FF8F8FF38FFF8F9
:10046000F8F040404000000000000080C0C0C080A4
:100470000000C0C08000000080C0C000C0C00000FC
:1004800080C0C00000000000C0C0C0C0C000C0C02C
:10049000000000000000000000000000000000005C
:1004A000000000000000000000000000000000004C
:1004B000000000000000000000000000000000003C
:1004C00000000000000000C0F0F8FC3E1E06010025
:1004D00000007F4141417F007F4141417F0000801A
:1004E000C0E07E5B4F5BFEC00000C000DCD7DEDEFC
:1004F000DED7DC00C00000000000000000000000AB
:100500000000000000000000000000000000494959
:1005100049FFFFFFFFE0DFBFBF00BFBFDFE0FFFF1E
:10052000FFFF49494900000000001F3F6060E0BF35
:100530001F007F7F071E381E077F7F007F7F0E1FF3
:100540003B716000000000007F7F0C0C0C007E7E81
:10055000007F7E0303007F7E03037E7E03037F7E96
:10056000000F3E703C063C703E0F00327B49493F15
:100570007E007F7E0303001E3F69696F2600000036
:1005800000000000000000030F1F3F3C7870600077
:1005900000007F4141417F007F4141417F00307B2E
:1005A0007F7830202030787F3B0003000F7F0F0FD3
:1005B0000F7F0F000300000000000000000000009B
:1005C0000000000000000000000000000000010129
:1005D00001070F0F7F0F7F0F0F7E0F0F7F0F7F0F12
:1005E0000F070101010000000000000000000001F1
:1005F00001000000000000000000000000000000FA
:1006000000000000000000000000000000000000EA
:1006100000000000000000000000000000000000DA
:1006200000000000000000000000000000000000CA
:1006300000000000000000000000000000000000BA
:1006400000000000000000000000000000000000AA
:10065000000000000000000000000000000000009A
:10066000000000000000000000000000000000008A
:10067000000000000000000000000000000000007A
:10068000000000000000000009025B00030100A060
:10069000FA09040000010301010009211101000110
:1006A0002244000705810308000109040100020338
:1006B0000000000921110100012222000705820328
:1006C00020000107050303200001090402000103C3
:1006D00000000009211101000122320007058403F6
:1006E000200001120100020000000832FC87020114
:1006F0000001020001160353006F0066006C0065E4
:10070000002000430068006F0063000000140342F3
:10071000007200690061006E0020004C006F0077DD
:100720000000000403090435001E001F0020002102
:100730000022002B0014001A00080015001700E02A
:100740000004001600070009220A00E1001D001B3A
:10075000000600190005002F00300050004F002A4D
:1007600000A8002D00270026002500240023002ECD
:1007700000130012000C0018001C00280021520F6A
:10078000000E000D320B0033003800370036001029
:100790000011003400E500520051002C00AE002989
:1007A000003B003C003D003E003F00000000002DEB
:1007B000002F0230022E0000000000240226022733
:1007C000022E02E100E20000002F003000000000D5
:1007D000000000000000002A00A80045004400437B
:1007E00000420041004000000000000000310031E4
:1007F000022D02000001000000340034020000005D
:100800000000000000370236020000000000005225
:100810000051002C00AE00A900AA00AB00AC00A95A
:1008200000AA00AB00AC0080818283848586878823
:10083000898A8B8C8D8E8F9091929394A0A1A2A384
:10084000A4A5A6A7A8A9AAABACADAEAFB0B1B2B3F0
:10085000B4C0C1C2C3C4C5C6C7C8C9CACBCCCDCE3B
:10086000CFD0D1D2D3D40000010101010101010197
:100870000102020202020202020203030303030353
:100880000303040404040404040505050505060621
:1008900006060607070707070808080809090909DF
:1008A0000A0A0A0B0B0B0C0C0C0D0D0D0E0E0E0F85
:1008B0000F0F101011111112121313141415151615
:1008C000161717181819191A1A1B1B1C1D1D1E1E86
:1008D0001F202021222223242425262627282929D7
:1008E0002A2B2C2D2D2E2F30313232333435363702
:1008F00038393A3B3C3D3E3F404142434445464700
:1009000048494A4C4D4E4F50515354555658595AD8
:100910005B5D5E5F616264656668696B6C6D6F707C
:1009200072737577787A7B7D7E8082838587888AEB
:100930008C8E8F91939596989A9C9EA0A2A3A5A722
:10094000A9ABADAFB1B3B5B7BABCBEC0C2C4C6C91E
:10095000CBCDCFD1D4D6D8DBDDDFE2E4E7E9EBEED7
:10096000F0F3F5F8FAFDFF00DA0281FFD9F1DB20A0
:10097000A4A62EAF00A0C0D30000A1C8D30000AE33
:10098000D580A81F408D142000000000000000004A
:100990000000000000000000000000000000000057
:1009A000000000000000000000000000007E0F00BA
:1009B000D4FFFFFFC7000000780000000000000027
:1009C000002A2B28000000000000000000000000AA
:1009D0000000000029000000002C1E3420212224E9
:1009E000342627252E362D3738271E1F2021222377
:1009F0002425263333362E37381F04050607080909
:100A00000A0B0C0D0E0F10111213141516171819CE
:100A10001A1B1C1D2F3130232D350405060708092C
:100A20000A0B0C0D0E0F10111213141516171819AE
:100A30001A1B1C1D2F3130354C0011241FBECFEF67
:100A4000DAE0DEBFCDBF12E0A0E0B1E0EEE8FDE607
:100A500002C005900D92AC3BB107D9F727E0ACEB93
:100A6000B2E001C01D92A23AB207E1F70E94912BB9
:100A70000C9450360C94000080935B07089580938B
:100A80005C07089521E030E001C0220F8A95EAF763
:100A900080915C07822B0E943F05089521E030E0A1
:100AA000A90102C0440F551F8A95E2F7CA0180953B
:100AB00090915C0789230E943F0508959B01677010
:100AC00091E001C0990F6A95EAF763E036952795A2
:100AD0006A95E1F7B901660F771F260F371FFA01F4
:100AE000E20FF31F40E050E0682F70E08191DF01DA
:100AF00011979B01042E02C0369527950A94E2F7C0
:100B0000217021952827292328272C934F5F5F4F99
:100B10004330510559F708959C01A82FA77083E031
:100B2000369527958A95E1F7C901880F991F820F9D
:100B3000931FFB01E80FF91F40E050E080E0219196
:100B400030E00A2E02C0369527950A94E2F721700C
:100B50003327042E01C0220F0A94EAF7822B4F5F3D
:100B60005F4F4330510559F70895282F862F9A304B
:100B700070F4263058F4622F70E026E0929F600DEA
:100B8000711D112448E357E00E945E0508959C5FA3
:100B90009230E0F7622F70E045E357E0F5CF292F60
:100BA0009A3068F4863090F490E068E377E036E0BD
:100BB000239F800D911D11240E948C0508952C5FA8
:100BC000223020F465E377E090E0F6CF80E00895EE
:100BD00090915C0721E030E0F90101C0EE0F8A95A9
:100BE000EAF7D90102C0AA0FBB1F6A95E2F7EA2B08
:100BF00001C0220F4A95EAF7892F8E23E81305C01A
:100C0000892F822B0E943F0508952095822F8923EA
:100C1000F9CF8091620790916107981301C0089500
:100C20008F5F8770FACF90915D07809589238093BD
:100C30005D07282F277021110DC0891759F0909159
:100C40005F0792FF07C08695869586950E944E05A0
:100C500010925D070895982F9095809158078923E9
:100C6000809358070895803E9105D1F1C8F48133EF
:100C7000910509F47FC048F48932910509F46FC0E9
:100C80008A32910509F47DC0089589339105E1F018
:100C900082389105C9F08533910509F45BC0089548
:100CA000843E9105D1F148F4823E910531F1833EB5
:100CB000910541F181EE90E00895863E9105C1F1E4
:100CC000873E9105E1F1089520915E07237021117F
:100CD00065C020915F0723FF14C089E290E008956A
:100CE00020915E0720FD43C030915F0730FF09C0AF
:100CF00024FF4EC080E090E0089520915E0722FD21
:100D0000F7CF089520915E0722FD45C030915F071F
:100D100030FD44C024FFF5CFEDCF20915F0721FFC8
:100D2000F0CF80915E0784FDE5CF87EE90E00895D7
:100D300020915E0723FFE5CF24FDDCCFF6CF209185
:100D40005E0723FD2EC030915F0731FFE3CF84EEB5
:100D500090E0089520915E0725FFD3CFBECF20916C
:100D60005E0725FD21C020915F0723FFCACF89E3DD
:100D700090E0089520915E0726FFC3CF8AE290E0BD
:100D8000089520915E0726FFBCCF81E390E008958F
:100D900083EE90E0089582EE90E0089580EE90E07A
:100DA000089586EE90E0089585E390E0AACF9091B3
:100DB0005E0792FF10C041E0282F2471243009F013
:100DC00040E031E0282F2871283009F030E0431747
:100DD00011F02CE0822793FF10C041E0282F2471EE
:100DE000243109F040E031E0282F2871283109F042
:100DF00030E0431711F02CE0822730915F0730FF7D
:100E000010C051E0282F2171213009F050E041E05D
:100E1000282F2871283009F040E0541711F029E0FC
:100E2000822731FF10C041E0282F2171213109F0C4
:100E300040E031E0282F2871283109F030E04317D5
:100E400011F029E0822794FD877E08951F93CF93A8
:100E5000DF930E943306EC01811522E5920708F02A
:100E600053C0811540E5940708F0DDC0803E910530
:100E7000F8F48D3C910508F0AEC0883A910580F4F5
:100E8000853A910508F099C08130910521F00497C9
:100E9000813A910550F4CE01DF91CF911F910895D1
:100EA000885A91094B9708F48BC0C0E0D0E0F3CF8B
:100EB000811550E49507F8F4C11580E2D80708F0D1
:100EC000CBC0C83ED10538F3CE019A9581159F411C
:100ED00060F78D2F0E94D706182FCE0199270E9408
:100EE0003306212F30E0322F2227E901CC27DF7192
:100EF000C82BD92BD0CF99270E943306CC27DF707F
:100F0000C82BD92BD06AC7CF803842E59407C8F5E3
:100F1000803652E5950708F067C0C03482E5D807EF
:100F2000B0F08C2F86958695877020E2829FC00155
:100F30001124C37021E030E0A90102C0440F551F05
:100F4000CA95E2F7EA01C82BD92BDC68A4CFC032DE
:100F500052E5D50708F041C08C2F8695869520E292
:100F6000829FC0011124C37021E030E0A90102C0BA
:100F7000440F551FCA95E2F7EA01C82BD92BDD684B
:100F80008ACF803C52E5950760F48F71C03AD24514
:100F900008F03FC090E0982F8827EC01C46FD06A1A
:100FA0007ACF805C9245809708F07FCFDC2FCC27EA
:100FB000CC27DF71C06FD06A6ECFA497D0646BCF9F
:100FC000C85AD0E0CC0FDD1FCA57DD4F0990D88139
:100FD000C02DD46460CFD0655ECFCF71D0E0DC2F60
:100FE000CC27C16FD06A57CF86958695877020E24F
:100FF000829FC0011124C37021E030E0A90102C02A
:10100000440F551FCA95E2F7EA01C82BD92BDA68BD
:1010100042CF0E94D706C82FD0E0DC2FCC27CC27A8
:10102000DF71D06238CF8F710E94D70665E0D69508
:10103000C7956A95E1F7CF70D0E0DC2FCC27282F39
:1010400030E084FF05C054E0220F331F5A95E1F7CA
:10105000C22BD32BD0691FCF8D2F8F710E94D70643
:10106000182FCE0199270E943306212F30E0322F0E
:10107000222722273F71282B392BE901D2CF80E08C
:101080000895F894E82FE295EF70F0E041A18F7099
:1010900021E030E0B90102C0660F771F8A95E2F7C0
:1010A000CB01962F9095942391A392A1892B82A393
:1010B0007894089581E08093EF060895A0E0B0E071
:1010C000E4E6F8E00C947135E82FF0E0E959F74FC9
:1010D000711109C0E4918E2F7E2F6E2FCDB7DEB730
:1010E000EAE00C948D35262F30E0C72FD0E0F49144
:1010F000EF2F86E0829F8001839F100D1124EE2444
:10110000EA94F12CC801B7010E945535AB01220FBA
:10111000331F65E5649FC001659F900D1124281B56
:10112000390B822F880F280FC7018C1B9D0BF89F4E
:10113000D001F99FB00D11248B2F2C9FB0012D9F52
:10114000700D1124672F77275701A61AB70AFA9D49
:101150006001FB9DD00C11247D2D5701A21AB1080E
:1011600095012C9F50012D9FB00C3C9FB00C112479
:10117000AB2CBB24EA18FB08FE9DE001FF9DD00DBF
:10118000112443305105C1F00C3F93E0190750F48E
:101190004130510509F4A1CF4230510589F07E2F2D
:1011A000ED2F9BCF4430510571F046305105B9F316
:1011B000EB2F8D2D7F2F91CFED2D7B2F8F2F8DCF6F
:1011C0007B2F8D2F8ACF7D2FEB2FF8CF982F8091FB
:1011D0002407882329F081E09D3108F080E00895FC
:1011E00081E09933FACF9C0180E090E0269F812D29
:1011F000369F800D911D112408959C018230910528
:1012000008F408959FEF213E8EE1380740F4C901AC
:1012100045E0969587954A95E1F798E0980F61E04B
:10122000E62FE90FFF27FF1FAF0155954795842F44
:10123000449FF001459FF00DF00D11242E173F073C
:1012400038F49FEF940F961758F78FEF860F089595
:101250004F3FE9F361E0640FF6CF40910D015091EB
:101260000E0125E038E0429FC001439F900D529F40
:10127000900D1124875E994C90930E0180930D017F
:10128000890F0895982FE82F96FDE0958E2F8F7087
:1012900096FD8F5FE695E695E695E670F0E0EF59EE
:1012A000FD4F2181289F202D812D112422952F7003
:1012B0008295807F282B8081820F97FD81958058B1
:1012C0000895FC019B01009719F4832F80780895FD
:1012D000AC0197FF04C044275527481B590BB9019F
:1012E000640F751F37FD0FC0C901841B950BA5E066
:1012F000880F991FAA95E1F70E94AC3580E2861B02
:10130000F7FD81950895CB0165E0880F991F6A95D7
:10131000E1F7BA01621B730B0E94AC3580E6EFCF98
:101320001F93172F922FE42FF0E0EE0FFF1FED54C5
:10133000FE4F408124EE429F412D1124E72FF0E023
:1013400050E09A01245E3F4F291B310937FF03C04B
:1013500031952195310993E0220F331F9A95E1F7DA
:10136000E21BF30BF7FF02C0E0E0F0E07E2F719F7D
:10137000712D11241F9108951F93182F822FE42F90
:10138000F0E0EE0FFF1FED54FE4F408124EE429F30
:10139000412D1124E12FF0E050E09A01245E3F4FEF
:1013A000281B310937FF03C031952195310983E0AE
:1013B000220F331F8A95E1F7CF01821B930B9C010B
:1013C00097FF02C020E030E0219F212D1124822FC1
:1013D0001F9108950F931F93CF93DF93D62F172F4D
:1013E000C82FBA01C901212F201B022F0E946109B9
:1013F000982F990F990F782F791B700F719F712D6E
:1014000011246D2F8C2FDF91CF911F910F91089593
:10141000FF920F931F93CF93DF93D62FC72F182FD1
:10142000BA01C901F12EF01A0E946109982F990F93
:10143000990F082F091B0F0D019F012D11246D2FEE
:101440007C2F802FCDB7DEB7E5E00C949235EF927C
:101450000F931F93CF93DF93D62F172FC82FBA0167
:10146000C9010E19010F0E946109702F781B719F2D
:10147000712D11246D2F8C2FDF91CF911F910F9122
:10148000EF900895EF920F931F93CF93DF93D62F92
:10149000C72F182FBA01C9010E19010F0E94610947
:1014A000081B019F012D11246D2F7C2F802FDF91B0
:1014B000CF911F910F91EF900895622F0895E42F1F
:1014C000F0E0EE0FFF1FED54FE4F6081621B0895A8
:1014D000E42FF0E0EE0FFF1FE958FE4F65AD621BF1
:1014E0000895322F50E0FA01EE0FFF1FE958FE4F2A
:1014F00095AD905297FD9195440F551FFA01ED540B
:10150000FE4F2081231B330B290F311D97FD3A9588
:10151000620F0895EF920F931F9310E09801220F2E
:10152000331F200F311F359527956E2D620F1F91A8
:101530000F91EF9008950F93CF93DF93D72FC82F7C
:10154000B90147FD419528E330E0241B310947FDEF
:101550003395229FA001239F500D500D1124669FAB
:10156000C001679F900D900D1124840F951F0E945C
:10157000FD08982F990F692F680F600F7D2F8C2F12
:10158000DF91CF910F9108950F93CF93DF93D72FD2
:10159000C82FBA01C9010E946109682F600F7D2F11
:1015A0008C2FDF91CF910F910895EF920F93CF93EE
:1015B000DF93D72FC82FBA01C9010E190E94610904
:1015C000602F681B7D2F8C2FDF91CF910F91EF90B3
:1015D00008950F931F93522F10E0F801EE0FFF1F95
:1015E000E958FE4FA5ADA052BB0B9D015203F0017F
:1015F000539FF00D1124000F111FD801AD54BE4FA1
:101600002C912057330B4203D001439FB00D11247E
:101610009F012A0F3B1F37FF02C021583F4F220F67
:10162000232F221F330B620F1F910F9108950F93E9
:101630001F93522F10E0F801EE0FFF1FE958FE4FE5
:10164000A5ADA052BB0B9D015203F001539FF00DBD
:101650001124000F111FD801AD54BE4F2C912057FB
:10166000330B4203D001439FB00D11249F012A0F79
:101670003B1F37FF02C0215C3F4F96E03595279511
:101680009A95E1F7620F1F910F9108950F931F93A1
:10169000A42F10E0F801EE0FFF1FED54FE4F9081D4
:1016A000905797FD9195000F111FF801E958FE4FD3
:1016B00005AD0052110B2003A001219F500D1124F4
:1016C00028E330E0291B310997FD33951A2F1203C7
:1016D000F001139FF00D11244E0F5F1F9A01220F8E
:1016E000331F240F351F37FF02C021583F4F220FF1
:1016F000232F221F330B620F1F910F9108950F9319
:101700001F93CF93DF93D62F072F182FC42F822F2D
:101710000E944209982FEC2FF0E0EE0FFF1FED54CE
:10172000FE4F80818058980F97FD9195990F292F32
:101730003CE0239F212D1124622F6D0F702F812FEC
:10174000DF91CF911F910F910895E42FF0E0EE0FFC
:10175000FF1FED54FE4F9081921B97FD9195292F0D
:1017600038E1239F212D1124620F0895A4E0B0E0F9
:10177000ECEBFBE00C9479352091540730E1230F1A
:1017800008F42FEF60E1822F90E00E94F308BC0183
:1017900088EB9BE00E945535CB01A0E0B0E0BC0196
:1017A000CD012496E2E00C9495359091B104982BEC
:1017B0009093B10408950E94BD0C0895FF920F9379
:1017C0001F93CF93DF93182F062FF42EC0E0D0E0A5
:1017D0002F2D402F612FCE010E94DB0B2196CA33A3
:1017E000D105B1F7CDB7DEB7E5E00C9492359CE0BA
:1017F000899F802D1124980F9B3308F09AE3209144
:101800002407211104C08D3128F48DE108959E3103
:1018100008F09DE10895982F862F2091500723709E
:10182000222389F0992381F09F3180F49F73990FCF
:10183000990F209150072370922B9093500710928C
:101840005C010E94D50B089591E0F1CF9EE1EFCFAE
:1018500080915007869586958F5F8F3108F081E0E3
:1018600061E00E940B0C0895909150079695969513
:101870008FEF890F913009F48EE161E00E940B0C2B
:101880000895982F822F209150072370222359F01A
:101890009093510760935207453608F044E6409311
:1018A00053070E94D50B0895E0E5F7E0818190E0B1
:1018B00021E04381628108960E94410C0895E0E591
:1018C000F7E0818121E0438162818850990B0E9479
:1018D000410C0895E0E5F7E0628120E1620F08F431
:1018E0006FEF818121E0438190E00E94410C0895D7
:1018F000E0E5F7E0628120E1621B08F460E08181AD
:1019000021E0438190E00E94410C0895E0E5F7E07A
:10191000438120E1420F08F44FEF818121E0628191
:1019200090E00E94410C0895E0E5F7E0438120E15A
:10193000421B08F440E0818121E0628190E00E9436
:10194000410C0895E0E5F7E0248130E1230F08F42D
:101950002FEF248381E00E94D50B0895E0E5F7E0A6
:10196000248130E1231B08F420E0248381E00E94DD
:10197000D50B08951092C4030895FC0180912407AB
:10198000811123C0ED31F1051CF17D97CF01880F46
:10199000991FDC01AE0FBF1FAA5EBC4F11963C9190
:1019A0001197361307C03C91341304C012963C9132
:1019B000321771F031E03093C403E80FF91FEA5E8B
:1019C000FC4F61834083228303C0ED31F105F4F2C3
:1019D0000895FA01882311F009950895FB01FCCFC1
:1019E0009091CE06492F50E02091CF062150330B25
:1019F000237033274217530789F04453594F60FB34
:101A000087F9FA0184839F5F93709093CE0680914B
:101A1000CC068F5F8093CC0681E0089580E0089526
:101A200090E06623E9F0815F9E4FFC0180818F3F4B
:101A3000B1F0E82FE295EF70F0E041A18F7021E066
:101A400030E0B90102C0660F771F8A95E2F7CB013B
:101A5000962F9095942391A392A1892B82A3089508
:101A6000805F9E4FE2CF90E06623A9F0815F9E4F9A
:101A7000FC0120812F3F91F0E22FE295EF70E05EB4
:101A8000F0E0808190E02F7002C0959587952A95AF
:101A9000E2F781700895805F9E4FEACF80E008955D
:101AA000FC01680F791F8FEF91E3E617F70709F440
:101AB00008952191822728E030E087FF08C0880F31
:101AC00089272150310921153105B9F7EECF880F4B
:101AD000F8CF80912307882359F0E0912B07F091EC
:101AE0002C07309729F00190F081E02D0995089599
:101AF00080E00895A3E0B0E0E0E8FDE00C947935E3
:101B00009C018091F2029091F30282179307A1F059
:101B10003093F3022093F202E0912B07F0912C070F
:101B2000309751F083E089833B832A830084F185D9
:101B3000E02DCE01019609952396E2E00C949535AF
:101B4000A3E0B0E0E6EAFDE00C9479359C018091D9
:101B5000F0029091F10282179307A1F03093F10205
:101B60002093F002E0912B07F0912C07309751F071
:101B700084E089833B832A830084F185E02DCE01B4
:101B8000019609952396E2E00C949535A4E0B0E027
:101B9000ECECFDE00C9479358FB7F8942091EC02D1
:101BA0003091ED024091EE025091EF0229833A8389
:101BB0004B835C838FBF69817A818B819C81249662
:101BC000E2E00C949535A4E0B0E0E9EEFDE00C9481
:101BD000793580912307882371F00E94C60D6983AF
:101BE0007A838B839C8369817A818B819C81249603
:101BF000E2E00C9495350E94C60D69837A838B834D
:101C00009C838091250790912607A0912707B0918A
:101C1000280729813A814B815C81280F391F4A1F8F
:101C20005B1F29833A834B835C83DDCFA4E0B0E064
:101C3000ECE1FEE00C947735462F572FBC012FB70F
:101C4000F8948091EC029091ED02A091EE02B09197
:101C5000EF022FBF8C019D01041B150B260B370BC8
:101C6000C901B8012496E4E00C94933587E797E71F
:101C7000909301088093000888E19AE00FB6F894E9
:101C8000A895809360000FBE90936000FFCF809175
:101C9000EB02089508950895FC019B018091E102F3
:101CA0009091E2028617970740F0672B29F4809104
:101CB000E8008E778093E800C90140E0009741F486
:101CC000411106C08091E80082FF2FC080E0089596
:101CD0002091E5062223A9F12530A9F12091E80001
:101CE00023FD2DC02091E80022FDECCF2091E800DB
:101CF00020FFE4CF3091F3002091F200009719F01B
:101D00002830310558F041E02830310509F040E035
:101D10002091E8002E772093E800D0CF41914093A6
:101D2000F10001972F5F3F4FE9CF8091E5068823AF
:101D300041F0853041F08091E80083FFC3CF81E01E
:101D4000089582E0089583E008958091DB0287FF83
:101D500013C08091E80082FF06C08091E8008B7775
:101D60008093E80004C08091E5068111F2CF0895C8
:101D70008091E5068823D9F38091E80080FFF8CFB1
:101D80008091E8008E77ECCF2091E4003091E5005F
:101D900095E6A9018091EC008170882331F0809153
:101DA000E80080FF06C080E008952091E80022FD51
:101DB0001BC08091E506882391F0853091F08091D9
:101DC000EB0085FD10C02091E4003091E500421742
:101DD000530701F391509111DCCF84E0089582E024
:101DE000089583E0089581E00895E8EDF0E08081B2
:101DF0008E7F80831092E2001092DA001092E10050
:101E0000A0EEB0E08C9181608C9380818F7780838D
:101E100019BCA7EDB0E08C918E7F8C9380818F7E72
:101E200080831092DA020895AF92BF92DF92EF9210
:101E3000FF920F931F93CF93DF935C018091080172
:101E40000E94F70BC82F192F609154076695809157
:101E5000A1049091A2040E94F308D82ED0E0CE01F4
:101E6000880F991F9C0129583E4F7901C11768F0CE
:101E7000812F0E94E608DF91CF911F910F91FF9073
:101E8000EF90DF90BF90AF900895FE01E95DFD4FA8
:101E900080819091090189238823C1F0F70125AD44
:101EA0002052330B44AD4057550B60915107709150
:101EB0005207809153070D2DF50109950E945E0888
:101EC000462F672F282FCE010E94DB0BF2E0EF0E8A
:101ED000F11C2196CBCFA0E0B0E0E1E7FFE00C944D
:101EE0006D353C01809108010E94F70BC82F192F16
:101EF0006091540766958091A1049091A2040E947C
:101F0000F308F82ED0E0CE01880F991F9C012958C4
:101F10003E4F6901C11740F0812F0E94E608CDB7FE
:101F2000DEB7EEE00C948935FE01E95DFD4F80815E
:101F3000909109018923882379F1F60184AD282F36
:101F40002057330B590185ADE82FE052FF0B4F01AD
:101F5000AA9C9001AB9C300D300D1124EE9FC00166
:101F6000EF9F900D900D1124820F931F0E94FD088A
:101F7000082F609151077091520780915307EF2C01
:101F80009401A501F30109950E945E08462F672F71
:101F9000282FCE010E94DB0BF2E0CF0ED11C219640
:101FA000B9CFA4E0B0E0E7EDFFE00C9473356C012D
:101FB000809108010E94F70B8B83F92E60915407E2
:101FC000669566958091A1049091A2040E94F30801
:101FD000182F80E4810F0E94420980588983812F45
:101FE0000E94420980588A839B81892F90E09C83BC
:101FF0008B839B819F1538F08F2D0E94E6082496D5
:10200000E8E00C948F35EB81FC81E95DFD4F808128
:102010009091090189238823A9F06091510770915B
:10202000520780915307E12E0B812A814981F601E5
:1020300009950E945E08462F672F282F8B819C816F
:102040000E94DB0B8B819C810196D1CFA0E0B0E098
:10205000ECE2F0E10C947435EC01FC01E95DFD4F1C
:102060008081909109018923882349F1D0905207FA
:102070000091530710915107E12EF12C0E942D0978
:10208000482FC7018C549F4F68E671E00E94AC3521
:102090008E199F0997FD0396959587959595879538
:1020A0004370612F489F600D11247D2D802F0E9469
:1020B0005E08462F672F282FCE010E94DB0BCDB77D
:1020C000DEB7E7E00C9490351F93CF93DF93EC01DC
:1020D000FC01E95DFD4F80819091090189238823EE
:1020E000B1F00E942D09182F0E942D0920E8829F2F
:1020F000C00111247FE7790F612F809153070E945F
:102100005E08462F672F282FCE010E94DB0BDF9140
:10211000CF911F910895EF92FF920F931F93CF934A
:10212000DF937C01809108010E94F70BC82F192FC3
:10213000609154076695669521E0620F08F46FEF91
:102140008091A1049091A2040E94F308082FD0E08E
:10215000C11740F0812F0E94E608CDB7DEB7E6E058
:102160000C949135FE01E95DFD4F8081909109014C
:102170008923882391F060915107709152078091D3
:102180005307202F4C2FF70109950E945E08462F18
:10219000672F282FCE010E94DB0B2196D9CF982FD5
:1021A000E42FE2709093E900891308C0762F242F62
:1021B00050E0E11111C091E0980FF4CF7091EC0064
:1021C0002091ED005091F00021FD06C09F5F9730F7
:1021D00049F78093E90008953091EB003E7F3093FA
:1021E000EB003091ED003D7F3093ED003091EB003E
:1021F00031603093EB007093EC002093ED0050932E
:10220000F0002091EE0027FDE1CF0895A0E0B0E0BE
:10221000ECE0F1E10C947335C8EDD0E088818F7E5D
:102220008883E7EDF0E080818160808384E082BF75
:1022300081E08093DA0288818E7F888302EE10E04D
:10224000F80110821092DA0081EEC82ED12CF6012E
:10225000108288818F7788838881806888838881CD
:102260008F7D888319BC1092E5061092D9021092D6
:10227000C0061092D80290EEE92EF12CF701808171
:102280008B7F808388818160888342E060E080E08A
:102290000E94CF10F60180818E7F8083F8018081BB
:1022A00081608083808188608083F70180818E7F58
:1022B0008083888180618883CDB7DEB7E8E00C94A5
:1022C0008F35E09162079091610727E0E91302C022
:1022D00080E00895AE2FB0E02E9FF0011124ED595B
:1022E000F84F3181361306C03081381303C0358171
:1022F000341304C0FD013196E770E8CF81E0089502
:102300008091C403882341F1539A3BB1377F2BB1AD
:1023100028604FB7F89486E193E0FC010196508164
:1023200068E02BB9000000C057FF3BB9550F000013
:1023300000C000C000C03BB900C06A9591F753E0EF
:10234000843C950751F74FBF8FE594E00197F1F773
:1023500000C000001092C40308950F931F93CF9301
:10236000DF93EB018A019091E506943079F5809333
:10237000E9008FEF9091E80095FD07C095ED9A95E3
:10238000F1F7000081508111F5CF8091E80085FFC1
:102390001DC00E94C40E811114C08091E80085FD0B
:1023A00006C08091E8008E778093E800F2CF8881A4
:1023B0008093F100015011090115110511F02196CA
:1023C000ECCF8091E8008E778093E800DF91CF9189
:1023D0001F910F910895CF93DF93D82FC92F48E015
:1023E00050E0682F792F81E00E94AD1188E0ED2F39
:1023F000FC2FA3EEB2E001900D928A95E1F7DF91F8
:10240000CF910895BC0143E050E084E00E94AD11FB
:102410000895A0E0B0E0EFE0F2E10C947135F82E01
:10242000E92EB62EA72E8A018091D602CC24C39421
:10243000D12C8A3018F48AE0C82ED12CC1E0D0E02B
:102440006B2D7A2D8F2D9E2DF8010995811116C0C7
:102450002196CC16DD0694F0CC9FC001CD9F900D47
:10246000900D112420E030E045E34A95F1F700009B
:102470002F5F3F4F28173907B9F7E2CFCDB7DEB747
:10248000EAE00C948D3590915F0792FB222720F9AA
:10249000281779F080FB92F990935F0760915E07AF
:1024A00070915F0784E090E00E944A3682E00E94CB
:1024B000130608951F93CF93DF93962F122F632F48
:1024C0008430D8F49A30C8F44630B8F4C42FD0E041
:1024D000CC0FDD1F2CE0929FC00DD11D112498E779
:1024E000899FC00DD11D1124CE0189960E942C36E2
:1024F000612FCE018A960E942C36DF91CF911F91D9
:1025000008951F93CF93DF93962F122F632F84305C
:10251000D0F49230C0F428E0829FE001112424E03E
:10252000929FC0011124C80FD91FC75FDD4FCE0194
:10253000442369F00E942C3681E090E0612F8C0FDB
:102540009D1F0E942C36DF91CF911F910895029616
:102550000E942C3683E090E0F1CF8F929F92BF9241
:10256000CF92DF92EF92FF920F931F93CF93DF935F
:1025700007E118E0E12CF12CC0E04701D0E01AC0DF
:1025800021E030E0C23020F4F601859194919C0165
:102590004B2D6D2F8C2F0E945A12B39422E0C20E45
:1025A000D11C36E0B312ECCFDF5F86E0880E911CC1
:1025B000DA3049F0C401880F991F9C01295D384F1A
:1025C0006901B12CDDCFC23088F121E030E041E07B
:1025D00060E08C2F0E94811221E030E040E060E05A
:1025E0008C2F0E94811221E030E041E061E08C2FCD
:1025F0000E94811221E030E040E061E08C2F0E94D7
:102600008112CF5F085F1F4F3CE3E30EF11CC43023
:1026100009F0B3CFDF91CF911F910F91FF90EF9011
:10262000DF90CF90BF909F908F900895F8012591F3
:10263000349141E060E08C2F0E948112F8013296C3
:102640002591349140E060E08C2F0E948112F801C6
:1026500034962591349141E061E08C2F0E948112E3
:10266000F8013696859194919C01C6CFCF93DF9364
:10267000C9E2D2E060E0CE010E942C362196C1155D
:1026800084E0D807B9F7DF91CF910895882381F0CE
:1026900064E285E290E00E942C3665E086E290E0FC
:1026A0000E942C3662E087E290E00E942C3608956A
:1026B0006FEF85E290E00E942C366FEF86E290E0AB
:1026C0000E942C366FEFEFCF80E00E94461360E04F
:1026D00088E290E00E942C360E94AD120E943613D0
:1026E00081E00E94461308950F931F93CF93DF93C9
:1026F000843030F56A3020F5463010F5C42FD0E034
:10270000CC0FDD1F2CE0629FC00DD11D112438E7D6
:10271000839FC00DD11D1124CE0189960E940E36D3
:10272000082F10E0102F0027CE018A960E940E3647
:102730009801282BC901DF91CF911F910F91089526
:1027400080E090E0F8CF0F931F93CF93DF93843016
:1027500078F5623068F528E0829F8001112434E02A
:10276000639FB0011124060F171F075F1D4FC8019B
:102770004423A1F00E940E36C82FD0E0DC2FCC27D6
:1027800081E090E0800F911F0E940E369E01282B61
:10279000C901DF91CF911F910F91089502960E9478
:1027A0000E36C82FD0E0DC2FCC2783E090E0EACFB4
:1027B00080E090E0EECF7A3048F4663070F48430F8
:1027C00060F4462F672F0E94741308957D3F41F4F3
:1027D000623018F441E0843050F080E090E00895D9
:1027E0007C3FD9F76230C8F78430B8F740E00E94E8
:1027F000A3130895A0E0B0E0E0E0F4E10C94743598
:102800007C0100915C0780915B07082BC3E0D0E05E
:1028100010E0C8010C2E02C0959587950A94E2F746
:1028200080FD09C02197A8F7D12C8D2DCDB7DEB73B
:10283000E7E00C949035DC2EB7018C2F0E94DB135F
:102840000E942607019771F3F0CF0F931F93CF9348
:10285000FC01858100811181882391F0662381F03C
:10286000C8010E94FA13C82F682FC8010E94B5053D
:10287000B8018C2F0E94DB13CF911F910F91089507
:10288000C8010E94CF05C82FF3CFCF93DF93D82F75
:10289000C92F0E94FA136D2F7C2F0E94DB130E9418
:1028A0002607DF91CF910895FC0184818823A1F050
:1028B000808191810E944514282F92959F709630B7
:1028C00091F060F4925F9F70923030F481E0203F8D
:1028D00079F030F4283E30F080E004C09A5FF3CF06
:1028E000243FD1F7089581E0283E18F0213FF9CF29
:1028F0000895089585E290E00E940E36843289F4AE
:1029000086E290E00E940E36853059F487E290E02E
:102910000E940E3691E0823009F090E0892F81709C
:10292000089580E0FCCF8091580790916007892B33
:1029300040915907442389F090E020EC32E0F901FE
:1029400050812F5F3F4F51119F5F52E0263C35076A
:10295000B1F7911110925907842B8093BE0248E081
:1029600050E06DE277E08EEB92E00E94D635892B45
:10297000A9F088E0EEEBF2E0ADE2B7E001900D9255
:102980008A95E1F7E0912B07F0912C07309731F011
:102990000280F381E02D8EEB92E00995089510926C
:1029A0005807E0ECF2E086E0DF011D928A95E9F736
:1029B00080E090E00E947A0D80E090E00E94A00DFF
:1029C000109260070E94931408950E94CF142FEF75
:1029D00084E39CE0215080409040E1F700C000007B
:1029E00088E19AE00FB6F894A895809360000FBE36
:1029F00090936000FFCFAAE2B0E0E1E0F5E10C9433
:102A000078358BED92E0FC0101962091F100208356
:102A100022E0833E9207B9F78091DC02893009F405
:102A200056C0C8F4823009F4B3C0833009F482C0C0
:102A3000813071F18091E80083FFE7C08091DB0273
:102A40009091DC029A3008F0E0C0E92FF0E0EE5AF5
:102A5000F94C0C94C0358A3009F489C08B3051F799
:102A60008091DB02813231F78091DF029091E002A8
:102A7000892B01F78091E800877F8093E8000E940E
:102A8000A50E8091DD02809300010E94CF14D2CF69
:102A90008091DB02813A71F68091E800877F809314
:102AA000E8008091DF029091E002892B61F060E004
:102AB00080E090E070E00E944C0E8091E8008B77FF
:102AC0008093E800B7CF68E083EE92E0F3CF809187
:102AD000DB02813209F0AECF8091DF029091E002FB
:102AE0008D7F892B09F0A6CF8091E800877F8093A6
:102AF000E8008091E80082FF18C09091F300809177
:102B0000F200029731F48091F100813011F08630AB
:102B100021F48091F1008093EB028091E8008B77A3
:102B20008093E8000E94A50E85CF8091E506811173
:102B3000E0CF80CF8091DB02813A09F07BCF80919A
:102B4000DF029091E002892B09F074CF8091E800B8
:102B5000877F8093E8008091E80080FFFCCF809120
:102B600000018093F1008091E8008E77D9CF8091A9
:102B7000DB02813209F05ECF8091E800877F80938D
:102B8000E8000E94A50E8091DE028093D70252CF0A
:102B90008091DB02813A09F04DCF8091E800877F78
:102BA0008093E8008091E80080FFFCCF8091D702FD
:102BB000D8CF803889F0823841F58091DF028F705C
:102BC000873018F58093E9008091EB0085FB88271A
:102BD00080F91092E90006C08091D8029091C00659
:102BE000911182609091E800977F9093E800809324
:102BF000F1001092F1008091E8008E7723C08111DE
:102C000016C08091DD02813011F18091E80083FFD0
:102C10000AC08091E800877F8093E8008091EB00F4
:102C200080628093EB00AA96E3E00C9494358230A6
:102C300061F78091DD02882389F01092E90080918C
:102C4000E800877F8093E8000E94A50EDECF81E038
:102C5000933009F080E08093C006EFCF8091DF02CF
:102C60008F702FEF280F263080F68093E900209197
:102C7000EB0020FFE2CF933031F48091EB008062D3
:102C80008093EB00DACF9091EB0090619093EB0092
:102C900021E030E0A90102C0440F551F8A95E2F7F8
:102CA0004093EA001092EA008091EB008860E8CF40
:102CB0008111ABCF1091DD021F778091E300807806
:102CC000812B8093E3008091E800877F8093E80068
:102CD0000E94A50E8091E80080FFFCCF8091E30068
:102CE00080688093E30083E0111101C082E080934B
:102CF000E5068BCF8058823008F087CF4091DD0207
:102D00005091DE024C3D83E0580799F583E08A83B9
:102D10008AE289834FB7F894DE01139620E03EE003
:102D200051E2E32FF0E050935700849120FF03C05D
:102D300082958F703F5F8F708A30C8F0895C90E019
:102D40008D939D932F5F243161F74FBF8091E800F1
:102D5000877F8093E8006AE270E0CE0101960E94CE
:102D60004C0E8091E8008B778093E8004ECF805D19
:102D7000E6CF8091DF029091E002252F33272330A8
:102D8000310509F44AC078F52130310509F479C0DC
:102D90008BE590E0E8E8F6E02230310509F035CF28
:102DA0002091E800277F2093E8002091E1023091F4
:102DB000E2028217930708F49C0140E021153105D7
:102DC00009F064C0411162C08091E80082FDC9CF62
:102DD0008091E506882329F2853019F28091E80078
:102DE00083FFF2CFBECF2132310509F43BC022323E
:102DF000310509F00ACF8330910508F006CFFC01B8
:102E0000EE0FFF1FED59FE4F0190F081E02D805A2B
:102E10009E4FDC018C9190E011C0CA01992741308E
:102E200089F082309105B1F0892B09F0EECEE3E212
:102E3000F7E0E4918E2F90E0E3E2F7E0009709F4E9
:102E4000E4CEAECFEDE0F7E0E4918E2F90E0EDE040
:102E5000F7E0F4CFE5EFF6E0E4918E2F90E0E5EFB8
:102E6000F6E0ECCF8330910508F0CFCEFC01EE0FF9
:102E7000FF1FE759FE4F0190F081E02D89E090E0BF
:102E80008FCF82E190E0E3EEF6E08ACF8091E50615
:102E9000882309F466CF853009F463CF8091E80078
:102EA00083FD5FCF8091E80082FD8ECF8091E800A6
:102EB00080FF84CF9091F3008091F20021153105BD
:102EC00019F08830910550F041E0089709F040E092
:102ED0008091E8008E778093E80070CF4491409312
:102EE000F1003196215031090196E8CF803809F080
:102EF0008CCE8091E800877F8093E8008091D90292
:102F00008093F10078CE811180CE1091DD021230D5
:102F100008F07BCE8091E800877F8093E8001093D3
:102F2000D9020E94A50E1123D1F084E08093E5061A
:102F300042E061EC81E00E94CF1042E261EC84E06B
:102F40000E94CF1042E261EC82E00E94CF1042E288
:102F500060EC83E00E94CF108091E50656CE809110
:102F6000E30087FDE2CF81E0E1CF0F931F93CF9382
:102F7000C82F882339F18CEF8C0F813AB0F500EC23
:102F800012E0F8018191C81709F122E0E63CF2074E
:102F9000C9F7EFEF80E0D8019D918D01C91781F04D
:102FA000EF3F19F4911101C0E82F8F5F863099F738
:102FB000EF3F31F00E2E000CFF0BE254FD4FC283A9
:102FC0000E949314CF911F910F910895E0ECF2E0CD
:102FD0008191C81303C0DF0111971C9232E0E63CD7
:102FE000F307B1F70E949314D4CF80E28C0F88309E
:102FF00068F4C77081E090E001C0880FCA95EAF7D5
:10300000C0915807C82BC0935807DACF8BE58C0FB7
:10301000833038F42C2F2452330BC9010E947A0DCF
:10302000D1CFC85ACB3170F6EC2FF0E0EE0FFF1F76
:10303000EA57FD4F808191810E94A00DC3CF882364
:1030400089F19CEF980F913A78F4E0ECF2E09191DD
:10305000891303C0DF0111971C9292E0E63CF90747
:10306000B1F70E949314089590E2980F983050F4AD
:10307000877091E001C0990F8A95EAF7892F0E9425
:103080002B06EFCF9BE5980F933028F480E090E07B
:103090000E947A0D0895885A8B3120F480E090E0E8
:1030A0000E94A00D08951F93CF93DF93182FEB017B
:1030B0000E94B517209739F4812F0E941F18DF91C5
:1030C000CF911F9108958FE99FE00197F1F700C01C
:1030D00000002197EFCF882339F090915807892B72
:1030E000809358070E9493140895882321F00E942A
:1030F0002B060E9493140895A8E0B0E0E2E8F8E1FE
:103100000C946C356C01DC0114968C91882309F4C5
:10311000B3C061E0C6010E9425148C01F6018581CF
:10312000882309F427C2C80197578038910508F011
:103130004DC1003108F090C08FEF93E00E940E3631
:1031400081118AC049E2E42E42E0F42E011153C0FD
:103150001A821982FE01339686E0DF011D928A955C
:10316000E9F75701BFEFAB1ABB0AC7010E940E3641
:1031700089831A82882309F46FC0813009F080C0E6
:1031800087010E5F1F4FC5010E940E368A83882378
:1031900009F462C09FEF980F9330E0F5E3E0EE0E84
:1031A000F11CC8010E940E368B83882309F454C099
:1031B0001C828E010F5F1F4FD8018C91882389F2EA
:1031C000813009F0A0C011968C911197813009F0DF
:1031D00059C05801B2E0AB0EB11CF801828160E029
:1031E00070E0893311F460E570E00E9453188501A6
:1031F0000F5F1F4FE1CFE114F4E0FF0669F1C70153
:103200000E940E3697012F5F3F4F79018111F3CF56
:1032100001509CCF8430B9F432E0E32EF12CC80188
:103220000F5F1F4F0E940E36E1E0F0E0EC0FFD1F34
:10323000EE0DFF1D8083882379F08C3731F4FE0179
:10324000EE0DFF1D12827801B4CFFFEFEF1AFF0AD7
:1032500027E0E216F10419F780915D078770882353
:1032600059F0F6018581882339F080915F0782FF4C
:1032700003C082E00E9413062896EFE00C94883584
:10328000750197CF823049F45801F2E0AF0EB11CBE
:1032900012968C910E94B517AACF833049F4580139
:1032A000B2E0AB0EB11CF80182810E941F189FCFC3
:1032B000843019F00F5F1F4F9BCF12962C910E5F39
:1032C0001F4F80E090E06AE0A8014F5F5F4F2053FE
:1032D000330B2A30310558F0009709F489CFAFE954
:1032E000BFE01197F1F700C000000197F5CF689F8C
:1032F000F001699FF00D1124C9018E0F9F1FF80185
:1033000021818A01E1CFE82FF0E0E754F64F649085
:10331000282F26952695269530E0F901E755F64F9A
:10332000A4908770782EB12C082E02C0B594A79473
:103330000A94E2F7B1E0AB22BB24F901E756F64F5D
:103340008490912C02C0959487948A95E2F7E1E0ED
:103350008E229924F901E757F64F5490A114B10435
:10336000C1F48114910421F560E070E0862D0E9483
:103370005318E52DF0E0072C02C0F595E7950A9467
:10338000E2F7E0FF35CF60E070E08CE20E94531876
:103390002FCF81EE0E94B5178114910449F460E0AB
:1033A00070E0862D0E94531881EE0E941F18E1CF15
:1033B00086EE0E94B51760E070E0862D0E945318DB
:1033C00086EE0E941F18AB28A1F2EECFC8019057DD
:1033D000839708F02BC184E090E00E94163690930A
:1033E0005F0780935E07F801E150F047E232F10594
:1033F00020F4E45AF94C0C94C03580915E0781604A
:1034000080935E0760915E0770915F0784E090E0B3
:103410000E944A360E94CF141FCF80915F078860B8
:1034200080935F07EFCF80915E078260E9CF809144
:103430005E078460E5CF80915E078860E1CF809170
:103440005F078160EDCF80915F078260E9CF809157
:103450005E078061D5CF80915E078062D1CF809179
:103460005E078064CDCF0E94CF1480915E07806894
:10347000C7CF80915E078C60C3CF80915F07836068
:10348000CFCF80915E078E7FBBCF80915F07877F14
:10349000C7CF80915E078D7FB3CF80915E078B7F12
:1034A000AFCF80915E07877FABCF80915F078E7F24
:1034B000B7CF80915F078D7FB3CF80915E078F7EFE
:1034C0009FCF80915E078F7D9BCF80915E078F7B22
:1034D00097CF0E94CF1480915E078F7791CF809114
:1034E0005E07837F8DCF80915F078C7F99CF80911E
:1034F0005E0782FB992790F921E0922790FB82F9E1
:1035000090FB83F97DCF80915F07982F9095917004
:103510008E7F892B90FB81F983CF90915E07892F55
:103520008F7B96FF80646CCF0E94CF1490915E07D2
:10353000892F97FB87F9805863CF61E08EE090E098
:103540000E942C365FCF60E0F9CF90915E07892F03
:103550008F7E94FF806154CF90915E07892F8E7F7C
:1035600090FF81604DCF90915F07892F877F93FFF8
:10357000886056CF809158078272F801E052F84770
:10358000E531F10508F07EC0E258F94C0C94C035E5
:103590008091500791E089278093500710925C0139
:1035A00081E00E94D50B58CE44E35CE068E27CE009
:1035B0000E94E90C51CE48E25CE064E37CE0F8CF85
:1035C0004FE55CE064E57CE0F3CF44E55CE06FE56B
:1035D0007CE0EECF48E75CE06AE67CE0E9CF4AE6D3
:1035E0005CE068E77CE0E4CF44E95CE066E87CE02E
:1035F000DFCF46E85CE064E97CE0DACF4EEA5CE0ED
:1036000062EA7CE0D5CF42EA5CE06EEA7CE0D0CFB3
:1036100061E081E00E940B0C1FCE61E085E0FACFF3
:1036200061E08DE0F7CF61E082E1F4CF0737FCE79E
:103630001F0709F499C082E008372CE7120709F444
:1036400094C00A359CE7190709F4B7C008F09BC07D
:103650000130BCE71B0709F4AEC00330ECE71E07DE
:1036600009F4A3C001151C47B9F40E94CF148FEFD1
:1036700094E3ACE081509040A040E1F700C000002E
:103680000E94360E07373CE7130709F476C0083767
:103690008CE7180709F475C0D60115968C9115971B
:1036A000ED90FC90882309F48CC0C7010E94FA13A6
:1036B000182F682FC7010E94B505B701812F0E94FE
:1036C000DB130E9426078C01F601B580A680A29428
:1036D0002FE0A22280915D078770882301F1EB2CF7
:1036E000BB20F1F0812F807F803461F080E2800F79
:1036F0008830A8F0812F807E803221F4023078F06B
:10370000AA2069F080915F0782FF09C082E00E94D1
:10371000130680915D078770EE24E3948111E12CFC
:10372000812F82958F70883009F43EC108F06DC0FA
:10373000843008F04BC0F12FFF70FF2E823008F468
:1037400075C0107F103219F0F29480EFF822002338
:1037500009F4A3C0013009F4ECC0BB2009F4F8C09F
:10376000AA2009F4B8C078C081E00E94420543E075
:1037700062E081E00E94E8056FCD81E00E944E0585
:10378000F6CF82E0FBCF0B352CE71207C1F00C35EA
:103790001C4709F081CF80915F0782FB882780F961
:1037A00091E089270E94431277CF6FEF7FEF80E08F
:1037B00090E00E944A360E94E51481E0F3CF80E059
:1037C000F1CFC7010E94CF05182F77CF843009F4BD
:1037D000D0C0EE20A9F080915D0780FD11C0F601F8
:1037E00015828695869586950E944205C6010E949F
:1037F0007C1880915D078695869586950E944E057A
:1038000060E0C6010E94251437CD893009F43BC120
:103810008A5F8F708230E8F6023F09F045C1812F40
:103820008F71B1103EC10E944205EBC0103118F0FB
:10383000F29490EFF922BB20B9F0FF2069F080E20A
:10384000800F883010F0011109C0809158078F292E
:10385000809358070E949314802F2FC08091600797
:103860008F2980936007F6CF802F0E941F18FF20BA
:1038700009F4AFCF80E2800F883010F0011104C04E
:103880008F2D0E942B0606C0F094809160078F2137
:10389000809360070E9493149CCF80915F0782FD04
:1038A00016C0BB2069F0FF2039F0809158078F299E
:1038B000809358070E94931480E00E94B51789CF27
:1038C00080E00E941F18FF2009F483CFD9CFBB20CE
:1038D000A1F0A11004C08F2D0E946B187ACF21E0B7
:1038E000A21277CF809159079F2D9823F91609F4DA
:1038F00070CF8F29809359076CCFA1106ACF8F2D7D
:103900000E947518909159078F2D8923882329F0DB
:103910008F2D809589238093590780915A079F2D79
:103920009823992309F455CFF094F822F0925A077E
:1039300050CFBB2029F035E03A1508F44ACFCBCF61
:1039400084E08A1508F445CF8F2D0E94751841CF69
:10395000AA20D1F3093349F49FEFA7EEB3E09150C9
:10396000A040B040E1F700C00000802F0E941F1867
:1039700030CF812F869586958370882361F08130C2
:1039800009F027CFC8019370B11002C080E090E029
:103990000E94A00D1ECFC8019370B11002C080E03C
:1039A00090E00E947A0D15CF812F8370811134C071
:1039B000B11027C0402F429546954770440F440FE1
:1039C000802F8F70042E01C0880F0A94EAF70071CF
:1039D000002341F02FE030E001C0220F4A95EAF7C2
:1039E000022F0095169516951370123081F0133042
:1039F00061F020915B07113039F0802B82230E9407
:103A00003C050E94690DE5CE822B802BF8CF802BE0
:103A100090915B078927F3CFBB2051F110FFF1CFC5
:103A2000402F429546954770440F440F802F8F706A
:103A3000042E01C0880F0A94EAF70071002341F0B8
:103A40002FE030E001C0220F4A95EAF7022F0095DF
:103A5000169516951370123089F0133069F0209185
:103A60005C07113041F0802B82230E943F05C9CFB3
:103A7000823038F2D5CF822B802BF7CF802B9091DC
:103A80005C078927F2CF1F70BB2039F0812F0E947D
:103A90004205802F0E946B18B4CF802F0E947518AA
:103AA000812F0E944E05ADCF033F70F4003FB9F067
:103AB000013FB9F1BB2009F45BC0AA2009F455C04D
:103AC000802F0E94B5179DCF033FD9F0043F29F105
:103AD000B110F3CFA1105AC0812F8F71E2CFBB205C
:103AE00069F0E4E0EA1508F48CCF1F7181E090E002
:103AF000012E01C0880F0A94EAF7C1CFF5E0AF1696
:103B0000F2CF80E0BB2009F4B0CF1F7181E0012E1D
:103B100001C0880F0A94EAF7A8CF80915F0782FD61
:103B200006C0812F8F71BB2009F4BBCF7CCEBB2098
:103B300089F01F71812F0E94420580915F0782FFEB
:103B400007C028E0129FC0011124836080935D07A5
:103B5000812F69CE81E00E94130631E03A1508F00A
:103B600050CF82E00E9413064CCF812F8F715BCE25
:103B7000AA2009F4B1CF093349F48FEF97EEA3E0FF
:103B800081509040A040E1F700C00000802F0E94CB
:103B90001F1837CF8091A107803178F48091A0075A
:103BA000882359F0E09162072091610730919C07CA
:103BB00040919B0757E02E1301C008956E2F70E0CF
:103BC0005E9FF0011124DF01AD59B84F14968C911E
:103BD0001497882361F111968C911197831327C054
:103BE0008C91841324C015968C91159781111FC058
:103BF00012968D919C91A0919D07B0919E078A1B72
:103C00009B0B883C910598F48091A1078F7080618F
:103C10008093A107E759F84F80818F70806180837E
:103C20008BE997E00E947C180E9409060895FB0129
:103C30003196E770C0CFADE0B0E0E1E2FEE10C9478
:103C40006D358C0186E0F801DE01189601900D9229
:103C50008A95E1F7F8017080F580A280B3808481B5
:103C60009BE9892E97E0992E60909F07611018C0FC
:103C7000882399F0FF2009F413C1C8010E9454144D
:103C8000882309F40DC187E0F801ABE9B7E00190A2
:103C90000D928A95E1F70E94CA1DFF24F39453C048
:103CA000D090A00720919D0730919E07A501421B4F
:103CB000530BDD2009F4C4C0483C510508F07AC01C
:103CC000882359F380919C07C180E090A107FFE011
:103CD000FE1508F459C0C81215C080919B078711C2
:103CE00011C0F1104BC08E2D8F7080618093A107A1
:103CF0008BE997E00E947C188091A107F8018683E8
:103D0000F12C21C0F1103AC040E06C2D872D0E94AB
:103D1000611140E06C2D872D0E946111F82E8111F8
:103D2000EFCF888599850E944514292F22952F7001
:103D3000903470F49F702230A0F09923B1F0F80114
:103D40009681903190F48F2D2D96EEE00C9489356C
:103D50002A5F2F70223068F0C8010E947C18FD2C69
:103D6000F2CF992311F0882371F3805E883058F3E5
:103D7000F3CF803F40F3815F8230F9CF8091A1077C
:103D800081608093A107BCCFC8123CC080919B0783
:103D9000871138C0F11036C0F801E682C8010E94D0
:103DA0007C1887E0F801ABE9B7E001900D928A95A5
:103DB000E1F773CFE090A107FFE0FE1550F08BE92B
:103DC00097E00E947C1887E0F40111928A95E9F748
:103DD00097CF882309F461CF90919C07F8018181E6
:103DE000981310C080919B0787110CC0F1100AC076
:103DF000E682C8010E947C1887E0F40111928A953E
:103E0000E9F74BCFC8010E945414882309F448C035
:103E1000FF2009F445C08091A107803208F433CF18
:103E200080919B0790919C079A838983BC82AB8287
:103E30006D821E82EF82CE0101960E947C1823CFF4
:103E4000483C510508F0BFCF882309F426CFFF2056
:103E500039F190919C078181981318C080919B073C
:103E6000871114C08091A10780FD9BCF803108F499
:103E700098CF8683807F803F09F490CF8681982FEA
:103E8000907F905F8F70892B868388CFC8010E94B6
:103E900054148111F8CE8091A10781608093A1070D
:103EA000C8010E947C18F9CEABE1B0E0EAE5FFE181
:103EB0000C9478354E8B5F8B688F798F8A8F9B8FB0
:103EC0009111109260071D8A86E0FE017696DE0150
:103ED0001F9601900D928A95E1F78B89882329F02E
:103EE00061E0CE010F960E94251487E0FE013F9607
:103EF000DE01189601900D928A95E1F7CE010896A1
:103F00000E941B1E81112BC087E0FE013896DE0146
:103F1000119601900D928A95E1F7209161074091E9
:103F200062078C858823D9F030E0C901019687703B
:103F3000992750E084179507E9F097E0929FD00108
:103F4000939FB00D1124AD59B84FFE0131960190E9
:103F50000D929A95E1F7809361070E94090617E098
:103F60008091620790916107891312C06B96E3E01C
:103F70000C9494350E94CF1410926107109262073E
:103F800087E0EBE9F7E0DF011D928A95E9F7E7CFDB
:103F9000189FC00111248D59984F0E941B1E882321
:103FA00029F38091620790E00196877099278093AA
:103FB0006207D6CFA0E0B0E0E0EEFFE10C947335ED
:103FC000FA0169017801C82F880FDD0B3097B1F035
:103FD000DE0193E0AA0FBB1F9A95E1F7A45EBE4FE6
:103FE00011968D919C9112978E5F984F4C9150E055
:103FF000E417F50708F4AF010E94E335CE010E94F3
:10400000E034182F8823D1F0E114F104B9F083E0F3
:10401000CC0FDD1F8A95E1F7FE01E45EFE4F438180
:1040200050E0E416F50608F4A701C45EDE4F6C818B
:104030007D816E5F784FC6010E94E335812FCDB739
:10404000DEB7E8E00C948F35A5E0B0E0EAE2F0E2FC
:104050000C946D35762E6A014901580101E010E09B
:104060009E012F5F3F4F40E050E060E070E00E9413
:10407000DA1F182F8823B9F1D6018D919D910D90EB
:10408000BC91A02DBC01CD010E94160E6980643642
:1040900071058105910530F4B701C5010E94500DED
:1040A000861509F18701940140E050E060E070E07E
:1040B000872D0E94DA1F182FB701C5010E94500DED
:1040C000861531F010E0812F2596EEE00C948935AD
:1040D00011701123C1F30E94C60DF6016083718334
:1040E00082839383F0CFA701B501C4010E94E33519
:1040F000EACFA5E0B0E0EFE7F0E20C9473356B0196
:1041000085E0E82EF12C03E017E09E012F5F3F4F82
:104110004EEF56E061E080E00E942420882349F0C1
:1041200095E0FE013196A9EFB6E001900D929A95C7
:10413000E1F795E0E9EFF6E0D60101900D929A954E
:10414000E1F72596E8E00C948F35AAE0B0E0EBEAC1
:10415000F0E20C947235B82E6D837E837A01B9013A
:104160006801A801C7010E94D6358C01AD81BE81CE
:104170008D919D910D90BC91A02DBC01CD010E940F
:10418000160E643671058105910518F401151105A7
:1041900099F000E010E020E030E0A601B7018B2D9F
:1041A0000E94DA1F882349F00E94C60DED81FE812E
:1041B000608371838283938381E02A96E9E00C9483
:1041C0008E350F931F93AC0105E010E028E037E037
:1041D00065EF76E082E00E94A5201F910F9108957F
:1041E000A9E0B0E0E6EFF0E20C94773588E0E0E596
:1041F000F7E0DE01119601900D928A95E1F780912A
:10420000E606898709E010E02AE137E0AE014F5F5A
:104210005F4F67EE76E087E00E94A5202996E4E0F4
:104220000C949335A8E0B0E0E8E1F1E20C94753528
:1042300088E0E82EF12C0EE017E09E012F5F3F4F43
:1042400041EF56E064E083E00E942420182F882389
:10425000C1F190910D078091F006981791F1F12C22
:104260009091110780911007891729F1E92FF0E04B
:10427000EA5FF84F848587FB662760F99F5F93703C
:104280009093110790910F079F5F90930F078F777F
:104290000E94F00CF82E8111E3CF00E010E020E046
:1042A00030E040E050E060E070E085E00E94DA1F1E
:1042B0001F2D182302C0F110F0CF80910D078093BD
:1042C000F006812F2896E6E00C949135A8E0B0E046
:1042D000ECE6F1E20C9477358091EB069091EC06D8
:1042E000A091ED06B091EE06BC01CD010E94160E24
:1042F00011E0643671058105910520F10E94E30DFE
:10430000DC01CB010296A11DB11D89839A83AB8389
:10431000BC8300E010E020E030E044E050E0BE016B
:104320006F5F7F4F86E00E94DA1F182F882351F0BD
:104330000E94C60D6093EB067093EC068093ED0629
:104340009093EE06812F2896E4E00C94933548E094
:1043500050E068E170E080E597E00E941C36109222
:10436000B1040895A6E0B0E0E8EBF1E20C946B35FF
:104370008D8380910C012D81821326C020915007DE
:10438000237030E040910B0150E081E024173507A5
:1043900009F480E0817080930A0180915507909123
:1043A0000901981739F08093090140E060E080E04E
:1043B0000E94DE0B3D813F3108F0D2C2E32FF0E0D6
:1043C000ED56F94C0C94C03581E0E4CF80910A01A0
:1043D000882309F44EC440E060E080E00E94DE0BD8
:1043E000809108018F5F8093080182E080935C01D7
:1043F00080910A01882309F441C42696E0E10C94D7
:104400008735809108010E94F70B082F99836091EE
:10441000510770915207809153070E945E08F62E53
:10442000E72ED82E10E04981041710F0842F36C0F3
:10443000F801E95DFD4F808190910901892388236E
:1044400031F02D2D4F2D6E2DC8010E94DB0B0F5F1B
:104450001F4FE9CF809108010E94F70B082FD92E3A
:10446000509151075983F090520710915307652FCF
:104470007F2D812F0E945E08C62EB72EA82E809118
:1044800054076981680F7F2D812F0E945E08698320
:10449000F72EE82E10E00D1520F08D2D0E94E60875
:1044A000E0C0F801E95DFD4F8081309109013823BA
:1044B000332359F02E2D49816F2D80FD03C02A2D05
:1044C0004C2D6B2DC8010E94DB0B0F5F1F4FE3CFFC
:1044D000809108010E94F70B9983E0905207D090D9
:1044E000530720915407B0E4FB2E3F2D329F312D0E
:1044F0001124F32E082F10E04981041708F096CFFD
:10450000F801E95DFD4F808190910901892388239D
:10451000B9F0F801EE0FFF1FE958FE4F85AD829507
:104520008F70609151078F9D600D11247E2D8D2D10
:104530000E945E08462F672F282FC8010E94DB0BC0
:104540000F5F1F4FD9CF809108010E94F70B99830D
:10455000D0905207C09053073091540720E4239F16
:10456000212D1124082F10E0E22EF12C598105177E
:1045700010F0852F93CFF801E95DFD4F8081909178
:10458000090189238823E9F0F801EE0FFF1FE9589C
:10459000FE4F24AD2E9DC0012F9D900D112475E07E
:1045A000959587957A95E1F760915107680F7D2D74
:1045B0008C2D0E945E08462F672F282FC8010E946D
:1045C000DB0B0F5F1F4FD2CF809108010E94F70BCA
:1045D000082F9983F090510710915207E0905307EC
:1045E000609154076695669566958091A1049091B7
:1045F000A2040E94F3080E94420920E8280F27FD28
:104600002195220F3E2D239F212D11246F2D712FD7
:10461000822F0E945E08F62EE72ED82E10E04981E8
:10462000041708F003CFF801E95DFD4F80819091F8
:1046300009018923882331F02D2D4F2D6E2DC801BE
:104640000E94DB0B0F5F1F4FEACF80E999E00E94C9
:104650008B1007C08CEB99E0FACF8AEE99E00E94AC
:10466000140F909108019F5F909308018111C5CEAE
:1046700082E080935C0180910A018111BECE3D8170
:104680003323B9CE88E09AE0EACF87E29AE00E942D
:104690006B0FE7CF82E49AE0FACF8DE59AE0D7CFAF
:1046A0008FE59AE0D4CF88E69AE0D1CF81E79AE00F
:1046B000CECF8AE89AE0EBCF8BE99AE0D0CF84ECBA
:1046C0009AE0CDCF85ED9AE0E2CF89EE9AE00E94A4
:1046D000D10FC7CF87E19BE0FACF86E49BE0F7CF0D
:1046E000809108010E94F70B998390910A01911122
:1046F00020C06091540720E1620F08F46FEF8091B1
:10470000A1049091A2040E94F3086AE070E00E9464
:104710005535892B61F40E942D095AE3859F90013C
:104720001124832F932F990F990B0E9426108981B2
:10473000B5CE082F10E08981E82EF12C0E151F054B
:10474000B4F7C8010E9426100F5F1F4FF7CF80916A
:1047500008010E94F70B998390910A0191111FC0E3
:104760006091540720E1620F08F46FEF8091A1047B
:104770009091A2040E94F30865E070E00E94553514
:10478000892BA9F60E942D099AE3899F9001112493
:10479000832F932F990F990B0E946410C8CF082F75
:1047A00010E0E981EE2EF12C0E151F050CF0BFCFA5
:1047B000C8010E9464100F5F1F4FF6CF809108015F
:1047C0000E94F70B082F9983E0905207F09053074F
:1047D0001091510760915407669566956695809192
:1047E000A1049091A2040E94F3080E94420920E8CB
:1047F000280F27FD2195220F3CE0239F212D112416
:10480000612F620F7E2D8F2D0E945E08F62EE72EFF
:10481000D82E10E0F9810F1710F08F2F3FCEF8013E
:10482000E95DFD4F8081909109018923882331F052
:104830002D2D4F2D6E2DC8010E94DB0B0F5F1F4FDA
:10484000E9CF8FE79BE003CF85EA9BE000CF809123
:1048500008010E94F70BF92E4091A1045091A20487
:104860006091A3047091A4048091C9039091CA033C
:10487000A091CB03B091CC0384179507A607B70787
:1048800008F051C00E942D092AE3829F8001112463
:10489000012F110F110BF801E95DFD4F80819091FF
:1048A00009018923882309F43EC00E942D0981FD56
:1048B0003CC00E942D0989830E942D0930E8839F06
:1048C000C00111247FE7790F8091530769810E940D
:1048D0005E08462F672F282FC8010E94DB0B20910E
:1048E000540730E1230F08F42FEF60E1822F90E0AE
:1048F0000E94F308BC0184EF91E00E94553580913D
:10490000A1049091A204A091A304B091A404860FE5
:10491000971FA11DB11D8093C9039093CA03A09353
:10492000CB03B093CC038F2DB9CD80E070E019821A
:10493000CDCF80910A0100917B0410917C042091DD
:104940007D0430917E044091A1045091A2046091B5
:10495000A3047091A404401751076207730748F439
:10496000809108018F5F8093080182E080935C0151
:1049700044CD811159C0809108010E94F70B9E839C
:10498000082F10E07801EE0CFF1CE00EF11EA701CD
:1049900043535C4F7A012E81021708F47FC0822FA7
:1049A0000E94E60881113EC04E814150550B7A01AC
:1049B0008A01000F111F5E81552309F485C0A801EB
:1049C0004E0D5F1D60ED73E08DEC93E00E94EC35C1
:1049D0000E942D0981FF7BC00E0D1F1DF801E353BE
:1049E000FC4F1082118212820E94B60B69837A8377
:1049F0008B839C838091A1049091A204A091A30435
:104A0000B091A40429813A814B815C81820F931F6C
:104A1000A41FB51F80937B0490937C04A0937D0416
:104A2000B0937E048E813ACD40E060E080E00E9449
:104A3000DE0B3DECE32E33E0F32E00E010E00E94AD
:104A40002D0981FF0DC0F7011082118212820F5FC4
:104A50001F4FF3E0EF0EF11C0A33110581F78BCFE6
:104A60000E942D0989830E942D09F0E88F9FC001C3
:104A700011247FE7790FC801880F991F800F911FBC
:104A80009C0123533C4F69016981809153070E9427
:104A90005E08F601608371838283D9CFF801E95DF6
:104AA000FD4F8081909109018923882339F0F70116
:104AB000228140816181C8010E94DB0BF3E0EF0E8F
:104AC000F11C0F5F1F4F67CF40E050E07BCF0E948B
:104AD0002D09D82E0E942D09E0E88E9FC0011124D7
:104AE0007FE7790F0E0D1F1D03531C4F6D2D809115
:104AF00053070E945E08F80160837183828374CF3C
:104B000080910A01882329F040E060E080E00E9463
:104B1000DE0B809108010E94F70B592E4091A104F1
:104B20005091A2046091A3047091A40480919D040B
:104B300090919E04A0919F04B091A00484179507C2
:104B4000A607B70708F07DC0609151077091520722
:104B5000809153070E945E086983772E682E8FE745
:104B6000E82E84E0F82E07E711E0580148016701BC
:104B7000412C02C044244394F60121916F01F401B9
:104B800081914F0190E0222309F45DC0262D4981D7
:104B9000672D0E94DB0BF5018581262D4981672D4C
:104BA00090E00E94DB0BF601808131978083F1E079
:104BB000AF1AB1084420F1F2F801828190E0F701C8
:104BC0002281222309F44AC0262D4981672D0E94A3
:104BD000DB0BF8018381262D4981672D90E00E942F
:104BE000DB0B0E942D09837091E0811190E0F701A9
:104BF0009283F3E0EF0EF11C0A5F1F4F21E0033BAD
:104C0000120709F0B2CF0E94B60B69837A838B83B7
:104C10009C838091A1049091A204A091A304B091DF
:104C2000A40429813A814B815C81820F931FA41FC8
:104C3000B51F80939D0490939E04A0939F04B0930E
:104C4000A004852D2BCC20E040E060E00E94DB0B2F
:104C5000F501858120E040E060E0A2CF20E040E067
:104C600060E00E94DB0BF801838120E040E060E01F
:104C7000B5CF809108018F5F8093080183E076CEE5
:104C8000A8E0B0E0E6E4F6E20C9479350E94E30D8A
:104C9000282F6093C5037093C6038093C703909336
:104CA000C8038091E60681111EC030915007832F02
:104CB0008370882319F0832F8695869530915C0147
:104CC0003230E1F090F4311116C010920801609377
:104CD000A1047093A2042093A3049093A40481E000
:104CE00080935C0104C080E0E9CF333091F02896D6
:104CF000E2E00C9495350E94B221F9CF80930C012B
:104D000080915007837080930B010E94801183E093
:104D1000E7CF8091B10481110E94A7218091A10465
:104D20009091A204A091A304B091A40489839A83D2
:104D3000AB83BC8380912307882389F069817A81C2
:104D40008B819C810E94160E462F572FBC0140314B
:104D500051056105710558F210925C01C8CF0E949F
:104D6000E30DAB01BC0189819A81AB81BC81481BF9
:104D7000590B6A0B7B0BEBCFCF93C82F882391F095
:104D80008091E60681110EC00E94B22110920C01A2
:104D900080915007837080930B010E94801183E003
:104DA00080935C01C093E606CF910895AB0124E6A1
:104DB00030E0BC0188E70E94F7329C0181E0232BA0
:104DC00009F080E008958091B806882369F0809109
:104DD000B706882349F062E070E086E491E00E9423
:104DE000D62681111092B7060895A4E0B0E0EBEF4B
:104DF000F6E20C9479358091B8068823F9F00E9488
:104E0000C60DDC01CB01805A9541AF4FBF4F809357
:104E1000B9069093BA06A093BB06B093BC068091E6
:104E2000B70681110BC062E070E084E491E00E945B
:104E3000D626882319F081E08093B7062496E2E015
:104E40000C949535CF93DF93682F8091B4049091A3
:104E5000B5046A30B9F42091BD06865B9440622F98
:104E600070E00E945535281B822F66E00E94A03515
:104E7000C82FC15018F4DF91CF91089580E20E94AD
:104E80002227F7CF6D30F9F49C01265B3440409126
:104E9000BD06642F70E0C9010E945535481B842F60
:104EA000A901480F511D4115524018F080E020E043
:104EB00030E0820F932F911D8A549B4F9093B5043D
:104EC0008093B404D8CF26E0FC01A0EDB2E00190BD
:104ED0000D922A95E1F7603E08F458C026E0FC01E7
:104EE00011922A95E9F7C091B404D091B50446E037
:104EF00050E0BE0180ED92E00E94D6359E01265B17
:104F00003440892B41F1C90145E0969587954A9532
:104F1000E1F741E050E0BA0102C0660F771F8A95C1
:104F2000E2F7CB016091B2047091B304862B972B0A
:104F3000B9016B5F7F4FE5E076956795EA95E1F7FC
:104F400002C0440F551F6A95E2F7842B952B90936E
:104F5000B3048093B2042A5F3F4F4091BD06642F93
:104F600070E0C9010E945535481B463010F4240FEB
:104F7000311D211572E0370710F020E030E02A548F
:104F80003B4F3093B5042093B40475CFF6E06F9F88
:104F9000B0011124685B7E4F46E050E00E94CD35A1
:104FA000A2CF1F921FB61F9211248F939F93AF938E
:104FB000BF938091BF06811113C08091EC02909144
:104FC000ED02A091EE02B091EF024196A11DB11D3C
:104FD0008093EC029093ED02A093EE02B093EF0267
:104FE000BF91AF919F918F911F901FBE1F901895F9
:104FF0002FB7F8948091EC029091ED02A091EE020F
:10500000B091EF022FBF0895A6E0B0E0EAE0F8E229
:105010000C9477350E94F8278C0180912907909194
:105020002A078017910779F019821A820E94F827BF
:10503000BC0149815A8180E090E00E94541F109386
:105040002A07009329072696E4E00C949335ACE0F8
:10505000B0E0EDE2F8E20C94763580E01CEF0DEF65
:105060009091CF062091CE062917F1F1E92FF0E0BB
:10507000E053F94F2081F22EE894F7F89F5F937088
:105080009093CF068091CD068F5F8093CD0627FD4C
:1050900012C0FF8218870E94F827BC014F815885F3
:1050A00083E091E00E94541FF9821A830E94F8273E
:1050B000682F83E011C0FF8208870E94F827BC0197
:1050C0004F81588582E091E00E94541FF9820A8343
:1050D0000E94F827682F82E0792F49815A8190E059
:1050E0000E94541F81E0BCCF2C96E5E00C949235D1
:1050F0009C014FB7F8948091EC029091ED02A09141
:10510000EE02B091EF024FBF821B930B08952F92D6
:105110003F925F926F927F928F929F92AF92BF92D7
:10512000CF92DF92EF92FF920F931F93CF93DF9373
:1051300000D000D000D0CDB7DEB78091B80688236C
:1051400099F180911403909115030E947828C297D9
:1051500008F042C08091B2049091B304892B09F009
:105160005AC08091B7068823F9F00E94C60D698362
:105170007A838B839C838091B9069091BA06A09123
:10518000BB06B091BC0629813A814B815C81281B0A
:10519000390B4A0B5B0BDA01C9018F3F9F4FAF4FB1
:1051A000BF4710F40E94E3260F900F900F900F90CE
:1051B0000F900F90DF91CF911F910F91FF90EF9083
:1051C000DF90CF90BF90AF909F908F907F906F9027
:1051D0005F903F902F9008950E94F82790931503B9
:1051E0008093140386EB94E09093B5048093B40409
:1051F000E7E2F8E08491FA83E983882309F4AACFEF
:105200000E94222749815A814F5F5F4F5A83498309
:10521000FA018491F2CF8091B806882309F4A1CFD6
:105220008091B60681119DCF0E94F5262091B2048F
:105230003091B30480E061E070E02115310509F49C
:1052400090CF082F10E01B01082E02C0220C331C47
:105250000A94E2F7A10142235323452B09F448C0E5
:105260009091BE0690FD46C09801369527953695DB
:105270002795922F8295880F80763FE1380F809393
:10528000030120930601309304019093070124E663
:1052900030E047E050E061E071E088E70E94AC3226
:1052A000892B09F05ECFA80125E0440F551F2A95F0
:1052B000E1F78091BE0680FD25C04A545B4F04E6AD
:1052C00010E020E230E060E488E70E944433892B5C
:1052D00009F047CF9101209530958091B2049091CB
:1052E000B304282339233093B3042093B20439CF75
:1052F0008F5FA7CF880F880F880F37E0380F20E027
:1053000093E0BDCFE4EFF2E080E2DF011D928A95E9
:10531000E9F7E3E7F1E0FE83ED830FE611E087E7CD
:10532000C82E81E0D82E97E0592E77247394AD8152
:10533000BE818D91BE83AD83F80121918F01240F31
:10534000352F311D2A543B4FE82FF0E0EC50FD4F34
:1053500080E090E0652C681A872C082E01C0880C2C
:105360000A94EAF77901A12CD701BD907D01B820FC
:10537000662D6A19677070E0BB2D062E01C0BB0F49
:105380000A94EAF79B2E71956195710967707727EA
:1053900001C0B6946A95EAF79B286081962A9082AC
:1053A000A39468E0A612E0CF01963196883091056B
:1053B00089F68D819E81C816D90609F0B8CF04E61A
:1053C00010E020E230E044EF52E07DCFA3E1B0E016
:1053D000ECEEF9E20C946E351A821982FE013396D6
:1053E00088E0DF011D928A95E9F789E6A82E82E020
:1053F000B82E8E010F5F1F4F4801EE24E394F12C6D
:1054000024E7C22E22E0D22EF50181915F018F3F69
:1054100009F441C0F894E82FE295EF70F0E021A183
:105420008F70A70102C0440F551F8A95E2F7CA0189
:10543000922F982B91A392A18095892382A378948F
:1054400000C0EEE6F2E031E0712C21912F3F09F42B
:10545000A5C0A22FA295AF70A05EB0E08C9190E0A5
:105460002F7002C0959587952A95E2F7817081117A
:1054700095C0832F782A330FCE16DF0631F7F5015A
:10548000319780818F3F11F00E94410850EA5A9570
:10549000F1F7D8017C920F5F1F4FBEE6AB16B2E06A
:1054A000BB0609F0B1CF4AE050E0B40185EA94E0D0
:1054B0000E94D6350091B00410E00552194F892B97
:1054C00009F46EC08AE0F401A5EAB4E001900D92FF
:1054D0008A95E1F781E08093CF020E94F8279093AC
:1054E000CE028093CD0280912307882309F4B0C0B7
:1054F0001C861B86FE013D9683E0DF011D928A9586
:10550000E9F78091D6028A3008F06CC07E01BBE0DA
:10551000EB0EF11C49E750E2B701C8010E940912E5
:105520006701882309F482C041EE50E2B701C80147
:105530000E940912882309F479C042E151E2B701BF
:10554000C8010E940912882309F470C046E651E29E
:10555000B701C8010E940912882309F467C040EF0F
:1055600050E2B701C8010E940912882309F45EC005
:105570001092D6028091AF0490E045E050E0B60171
:105580008552994F0E94D63521E02093CC02892B79
:1055900009F03FC06396EDE00C948A3580E06ACF55
:1055A0008091CF02882309F49ECF8091CD02909103
:1055B000CE020E947828059708F495CF45E050E088
:1055C00065EA74E0C8010E94D635892B41F085E078
:1055D000E5EAF4E0D80101900D928A95E1F7109286
:1055E000CF0281CF8091CA029091CB020E9478288D
:1055F000843F914008F08ACF8091CC02882351F2F9
:10560000FE013B9685E0DF011D928A95E9F7109235
:10561000CC02A091AF04B0E0A552B94F85E0FE01E5
:105620003B9601900D928A95E1F7B4CF8091D60216
:105630008F3F39F40E94F8279093CB028093CA02DF
:10564000DBCF8F5F8093D6028A3008F493CFF2CFFE
:10565000E090AF04F12CF701E552F94F7F0185E0AE
:10566000F801A3E0B7E001900D928A95E1F765E0BB
:1056700070E083E097E00E94500D8093020785E080
:10568000E8E0F7E0D70101900D928A95E1F788E014
:10569000ECECF6E0AEE0B7E001900D928A95E1F710
:1056A00068E070E08EE097E00E94500D80930D0757
:1056B000C0901607D0901707E0901807F0901907D0
:1056C0008091C6029091C702A091C802B091C90210
:1056D000C816D906EA06FB06B1F0C092C602D092FF
:1056E000C702E092C802F092C9020E94C60DC61A13
:1056F000D70AE80AF90AC0922507D0922607E09255
:105700002707F092280788E0EAE1F7E0A0E5B7E094
:1057100001900D928A95E1F7809122070E94BC26A4
:1057200039CFCDB7DEB7A4970FB6F894DEBF0FBE62
:10573000CDBF85B7806885BF85B7806885BF84B7D2
:10574000877F84BF0FB6F894A89580916000886128
:1057500080936000109260000FBE80E890E00FB66A
:10576000F89480936100909361000FBE8FE398E0FE
:105770009093BD028093BC020E94F50E0E94061118
:105780008091E20084608093E20078948091E50645
:10579000882399F08091E9001091EC00179511276A
:1057A00017958F70182B1092E9008091E80083FD07
:1057B0000E94FB141F701093E90082E084BD93E007
:1057C00095BD9AEF97BD80936E00109225071092B9
:1057D000260710922707109228070E947A14811139
:1057E00002C00E94641388EC90E02091E30027FD42
:1057F000D9C4AFE3BCE91197F1F700C000000197ED
:10580000009799F70E94F50E1092E5061092230773
:105810001092240710921101ECECF6E088E0DF0111
:105820001D928A95E9F78091110191E08927809373
:10583000D606809111019093D90680911101809133
:105840001101811106C084EF8093100185EF8093D0
:105850000F0160E080E00E94100D61E080E00E9496
:10586000100DEFE8F1E03197F1F700C0000010E013
:105870008091D906181708F4D0C080911101809149
:10588000110190E0811101C095E09093B00485E092
:10589000891B8093AF0409E612E0D8018D918D0138
:1058A0008F3F11F00E944108B2E00E361B07A9F7A6
:1058B0000EE612E0F80181918F018F3F11F00E94F6
:1058C0004108F2E004371F07A9F78AE0EBEDF6E0A4
:1058D000DF01282F1D922A95E9F7E5EAF4E0DF01C0
:1058E0001D928A95E9F780E090E00E941636863E88
:1058F0009E4F21F40E947A14811168C066EE7EEFFB
:1059000080E090E00E944A3660E082E090E00E94F1
:105910002C3681E080935B0761E083E090E00E9499
:105920002C3660E074E184E090E00E944A3660E04A
:1059300086E090E00E942C3660E087E090E00E94D4
:105940002C3640E050E0BA0188E090E00E943E36FC
:1059500060E084E290E00E942C3660E087E190E015
:105960000E942C3660E08CE090E00E942C3660E0D3
:105970008DE090E00E942C3619821A821B821C82D4
:105980001D821E821F82188648E050E068E170E0A8
:10599000CE0101960E941C3640E050E0BA0180E240
:1059A00090E00E943E3680E00E9446130E946413FD
:1059B00040E050E0BA018FE090E00E943E3640E0C7
:1059C00050E0BA0183E190E00E943E3682E090E030
:1059D0000E940E368093C10684E090E00E94163645
:1059E00090935F0780935E070E94E629EFEFF6E74A
:1059F00021E0E150F0402040E1F700C000000E94AB
:105A0000E6298091DB0680FF1AC06FEF7FEF80E010
:105A100090E00E944A360E94360E60E0812F0E947C
:105A2000330D082F61E0812F0E94330DE12FF0E04C
:105A3000E952F94F880F802B80831F5F19CF83E0D5
:105A400090E00E940E360E943C050E94BA0C81E054
:105A50008093B10448E050E068E170E080E597E0B1
:105A60000E94FE351092B104809150078430B8F442
:105A700085E38093500780915D0190915E01A09134
:105A80005F018093510790935207A09353078FE7CC
:105A9000809354078FEF809355070E94A721809130
:105AA0002307880F8093BE0680E88093BD060E947E
:105AB00076326BE070E08EE799E00E94D62688236C
:105AC00009F443C08091BE0665E070E081FDB2C07C
:105AD00089E799E00E94D6268823B9F16DE070E04D
